:100000000C94BE010C94E6010C94E6010C94480695
:100010000C9424060C9400060C94E6010C94E60162
:100020000C94E6010C94E6010C94E6010C94E601B4
:100030000C94E6010C94E6010C94E6010C94E601A4
:100040000C94B6050C94E6010C9418050C94F2047B
:100050000C94E6010C94E6010C94E6010C94E60184
:100060000C94E6010C94E60107634236B79BD8A7CF
:100070001A39685618AEBAAB558C1D3CB7CC5763CD
:10008000BD6DEDFD753EF6177231BF000000803F7B
:1000900008000000BE922449123EABAAAA2ABECD97
:1000A000CCCC4C3E00000080BEABAAAAAA3E000009
:1000B0000000BF000000803F000000000008417801
:1000C000D3BB4387D1133D190E3CC3BD4282AD2B38
:1000D0003E68EC8276BED98FE1A93E4C80EFFFBE30
:1000E00001C4FF7F3F00000000000000000024006A
:1000F00027002A0000000008000201000003040796
:10010000000000000000000000C201000100050026
:1001100005000300030000E1000001000F000F00D4
:100120000D000D0000960000020019001A001700D3
:100130001700127A00000700200021001D001D009A
:10014000807000000B002300230020002000004BE3
:10015000000014003700370034003400403800003D
:100160001E004B004B0048004800482600003100AC
:10017000710071006F006F00E42500003100710014
:1001800071006F006F008025000032007200720065
:1001900070007000C01200006E00E900E900E60087
:1001A000E60060090000E500D801D801D501D501BD
:1001B000B0040000D301B403B403B103B103580287
:1001C0000000B40367076707620762072C0100009D
:1001D0006707DD0EDD0EDA0EDA0E20000053656EC5
:1001E000736F722032000053656E736F722031009E
:1001F0005243542D54657374004A657469205465E4
:1002000073742053656E736F720020524354204AFA
:1002100065746920546F6F6C73004A65746920546B
:100220006573742053656E736F72002052435420BF
:100230004A65746920546F6F6C730000070E091CC7
:100240001B1215383F363124232A2D70777E796CA6
:100250006B6265484F464154535A5DE0E7EEE9FC56
:10026000FBF2F5D8DFD6D1C4C3CACD90979E998C46
:100270008B8285A8AFA6A1B4B3BABDC7C0C9CEDB77
:10028000DCD5D2FFF8F1F6E3E4EDEAB7B0B9BEABE6
:10029000ACA5A28F88818693949D9A2720292E3B16
:1002A0003C35321F18111603040D0A5750595E4B86
:1002B0004C45426F68616673747D7A898E8780953C
:1002C000929B9CB1B6BFB8ADAAA3A4F9FEF7F0E526
:1002D000E2EBECC1C6CFC8DDDAD3D4696E676075D6
:1002E000727B7C51565F584D4A4344191E171005C6
:1002F000020B0C21262F283D3A33344E49404752F9
:10030000555C5B7671787F6A6D64633E3930372265
:10031000252C2B0601080F1A1D1413AEA9A0A7B295
:10032000B5BCBB9691989F8A8D8483DED9D0D7C205
:10033000C5CCCBE6E1E8EFFAFDF4F30000000025C0
:100340000028002B000000000023002600290004E4
:10035000040404040404040202020202020303036C
:100360000303030102040810204080010204081066
:100370002001020408102000A00D6D0D11241FBEE5
:10038000CFEFD8E0DEBFCDBF11E0A0E0B1E0EAEAF8
:10039000F4E202C005900D92A235B107D9F723E02F
:1003A000A2E5B1E001C01D92A33AB207E1F711E066
:1003B000CDEBD1E004C02197FE010E943D12CC3B61
:1003C000D107C9F70E94170A0C9448120C94000038
:1003D000CF92DF92EF92FF920F931F93CF93DF9311
:1003E0006C017A018B01C0E0D0E0CE15DF0589F009
:1003F000D8016D918D01D601ED91FC910190F081B4
:10040000E02DC6010995892B11F47E0102C02196C9
:10041000ECCFC701DF91CF911F910F91FF90EF902B
:10042000DF90CF900895FC01918D828D981761F037
:10043000828DDF01A80FB11D5D968C91928D9F5F1B
:100440009F73928F90E008958FEF9FEF0895FC01C6
:10045000918D828D981731F0828DE80FF11D858D79
:1004600090E008958FEF9FEF0895FC01918D228D0C
:10047000892F90E0805C9F4F821B91098F73992791
:1004800008958CE991E00E94350221E0892B09F45E
:1004900020E0822F0895FC01848DDF01A80FB11D9B
:1004A000A35ABF4F2C91848D90E001968F739927AA
:1004B000848FA689B7892C93A089B1898C91806497
:1004C0008C93938D848D981306C00288F389E02D58
:1004D00080818F7D80830895EF92FF920F931F9309
:1004E000CF93DF93EC0181E0888F9B8D8C8D9813E7
:1004F00005C0E889F989808185FD24C0F62E0B8D21
:1005000010E00F5F1F4F0F731127E02E8C8DE81244
:100510000CC00FB607FCFACFE889F989808185FF06
:10052000F5CFCE010E944B02F1CF8B8DFE01E80F7B
:10053000F11DE35AFF4FF0820B8FEA89FB8980811E
:10054000806207C0EE89FF896083E889F98980812C
:100550008064808381E090E0DF91CF911F910F91C3
:10056000FF90EF900895CF93DF93EC01888D88235F
:10057000C9F0EA89FB89808185FD05C0A889B98910
:100580008C9186FD0FC00FB607FCF5CF808185FFEB
:10059000F2CFA889B9898C9185FFEDCFCE010E9459
:1005A0004B02E7CFDF91CF91089580E090E0892B57
:1005B00029F00E94410281110C94000008958330BB
:1005C00081F028F4813099F08230A1F008958730CD
:1005D000A9F08830B9F08430D1F4809180008F7D0B
:1005E00003C0809180008F7780938000089584B548
:1005F0008F7702C084B58F7D84BD08958091B0004F
:100600008F7703C08091B0008F7D8093B0000895F4
:10061000CF93DF93282F30E0F901EC50FF4F849106
:10062000F901ED59FC4FD491F901E15BFC4FC49104
:10063000CC2391F081110E94DF02EC2FF0E0EE0F4D
:10064000FF1FEB5BFC4FA591B491EC91ED2381E092
:1006500090E021F480E002C080E090E0DF91CF9153
:1006600008958E3008F08E508770806480937C00EF
:1006700080917A00806480937A0080917A0086FD70
:10068000FCCF809178002091790090E0922B089522
:100690003FB7F8948091770190917801A09179010A
:1006A000B0917A0126B5A89B05C02F3F19F001969D
:1006B000A11DB11D3FBFBA2FA92F982F8827820FE8
:1006C000911DA11DB11DBC01CD0143E0660F771F37
:1006D000881F991F4A95D1F708952FB7F894609114
:1006E00073017091740180917501909176012FBF13
:1006F0000895DC015196ED91FC91529790815096AE
:100700008C91809589238083089520919A0130915E
:100710009B012817390781F49091980180919901E4
:10072000981751F0E0919801F0E0EE5AFE4F808169
:10073000082E000C990B08958FEF9FEF08952091DC
:100740009A0130919B012817390739F48FB7F89433
:1007500010929901109298018FBF089520919A01EB
:1007600030919B012817390769F4809199012091F4
:10077000980190E08096821B910960E270E00E94EF
:10078000F31108958FEF9FEF089520919A01309112
:100790009B0128173907B9F490919801809199012C
:1007A0009817A1F0E0919801F0E0EE5AFE4F808199
:1007B0002091980130E02F5F3F4F2F713327209316
:1007C000980190E008958FEF9FEF08958EEF9FEFCF
:1007D000089520E001972FEF8F3F9207D9F70895F2
:1007E000EF92FF920F931F93CF93DF93C0919A01E3
:1007F000D0919B01209709F443C08B899C890E946A
:10080000E90388E0E82EF12C10E001E08D899E8953
:100810000E94E903EE85FF8590818D85892311F083
:10082000102B03C0802F80951823000F81E0E81A59
:10083000F10861F78D899E890E94E9038F89988D5F
:100840000E94E903809199012091980190E001961E
:100850008F71992730E08217930779F0E091990121
:10086000F0E0EE5AFE4F10838091990190E00196DE
:100870008F7199278093990103C08D8D81608D8F31
:10088000DF91CF911F910F91FF90EF900895CF923C
:10089000DF92EF92FF920F931F93CF93DF93EC01C0
:1008A000898D9A8D009729F421E030E03B832A83DB
:1008B00064C0FFB6F89428E030E090E081E0482F73
:1008C000462309F09F5F880F21503109C1F78E8DB3
:1008D00081119F5FE62E192F1095CE010E9479039A
:1008E000898D9A8D04960E94E90388E0C82ED12C48
:1008F00001E0802F8E2139F0E989FA899081888979
:10090000892B808303C0CE010E947903898D9A8D43
:100910000E94E903000F81E0C81AD10851F78E8DBB
:10092000882339F0E989FA8990818889892B808325
:1009300003C0CE010E947903898D9A8D0E94E9033C
:1009400010FF07C0E989FA8990818889892B808303
:1009500003C0CE010E947903898D9A8D0E94E9031C
:10096000E989FA8990818889892B8083FFBE8B8DE4
:100970009C8D0E94E90381E090E0DF91CF911F916F
:100980000F91FF90EF90DF90CF900895CF93DF937A
:10099000C0E0D0E08091630390E0C817D907ECF481
:1009A000209761F00197C817D90741F081E02091A5
:1009B000610330916203C217D30709F480E0FE019E
:1009C000E355FD4F60818093820384E693E00E94AB
:1009D0004704109282032196DDCFDF91CF910895D5
:1009E0000E9443121F920F920FB60F9211242F9361
:1009F0003F934F935F936F937F938F939F93AF93A7
:100A0000BF93EF93FF938CE991E00E944B02FF911B
:100A1000EF91BF91AF919F918F917F916F915F9176
:100A20004F913F912F910F900FBE0F901F901895EF
:100A30001F920F920FB60F9211242F938F939F93B3
:100A4000EF93FF93E091AC01F091AD018081E091D3
:100A5000B201F091B30182FD12C090818091B50185
:100A60008F5F8F732091B601821751F0E091B5012D
:100A7000F0E0E456FE4F958F8093B50101C0808170
:100A8000FF91EF919F918F912F910F900FBE0F903B
:100A90001F9018951F93CF93DF93282F30E0F90113
:100AA000EC50FF4F8491F901ED59FC4FD491F901BD
:100AB000E15BFC4FC491CC23C9F0162F81110E9439
:100AC000DF02EC2FF0E0EE0FFF1FE55CFC4FA5917D
:100AD000B4918FB7F894111105C09C91ED2FE0955A
:100AE000E92302C0EC91ED2BEC938FBFDF91CF9106
:100AF0001F910895CF93DF9390E0FC01ED59FC4FD7
:100B00002491FC01E15BFC4F8491882361F190E02A
:100B1000880F991FFC01E651FF4FC591D491FC014C
:100B2000E55CFC4FA591B491611109C09FB7F894A1
:100B30008881209582238883EC912E230BC062301C
:100B400061F49FB7F8943881822F8095832388833E
:100B5000EC912E2B2C939FBF06C08FB7F894E881A1
:100B60002E2B28838FBFDF91CF9108951F920F9274
:100B70000FB60F9211242F933F938F939F93AF93B0
:100B8000BF938091730190917401A0917501B09110
:100B900076013091720126E0230F2D3720F4029662
:100BA000A11DB11D05C029E8230F0396A11DB11D8C
:100BB000209372018093730190937401A093750147
:100BC000B09376018091770190917801A09179019D
:100BD000B0917A010196A11DB11D80937701909388
:100BE0007801A0937901B0937A01BF91AF919F9161
:100BF0008F913F912F910F900FBE0F901F901895DE
:100C00001F920F920FB60F9211242F933F934F9381
:100C10005F936F937F938F939F93AF93BF93EF9364
:100C2000FF930E94F003FF91EF91BF91AF919F91CD
:100C30008F917F916F915F914F913F912F910F9085
:100C40000FBE0F901F9018951F920F920FB60F9224
:100C500011242F933F934F935F936F937F938F93C1
:100C60009F93AF93BF93EF93FF930E94F003FF9185
:100C7000EF91BF91AF919F918F917F916F915F9114
:100C80004F913F912F910F900FBE0F901F9018958D
:100C90001F920F920FB60F9211242F933F934F93F1
:100CA0005F936F937F938F939F93AF93BF93EF93D4
:100CB000FF930E94F003FF91EF91BF91AF919F913D
:100CC0008F917F916F915F914F913F912F910F90F5
:100CD0000FBE0F901F901895E0919C01F0919D011F
:100CE0000190F081E02D682F8CE991E00994A3E850
:100CF000B3E020E040E250E15A0F21111FC0FC0197
:100D000034913323D9F03C93119601965A13F5CFC1
:100D100080E090E020E030E2DC01AD57BC4F2111D3
:100D200010C0FB01E80FF91FE491EE2351F050963B
:100D3000EC9301968031910579F708954C9321E069
:100D4000E3CF50963C9321E0F4CF80919A019091AB
:100D50009B0184569340A1F0809181038E7F809304
:100D600081038FB7F894109299011092980124E6AC
:100D700033E030939B0120939A018FBF81E0089567
:100D800080E008952F923F924F925F926F927F92F0
:100D90008F929F92AF92BF92CF92DF92EF92FF928B
:100DA0000F931F93CF93DF93CDB7DEB7A0970FB606
:100DB000F894DEBF0FBECDBF9091AB029923C9F06E
:100DC0002EE72093AD0222E92093AE0223E2209386
:100DD000AF029093B00290910201992311F09150CB
:100DE00003C01092AB0296E09093020104E010E081
:100DF00002C000E010E09091AB02911197C19EE714
:100E00009093AD029FE99093AE021092AF0299E1E8
:100E10009093B00294EA9093B1029CEA9093B2024C
:100E200097E09093B3021092B4028111E8C080E47D
:100E30008093AF027090AC028090390290903A0299
:100E400008E010E0612CD62CD70CED2DF0E0E81571
:100E5000F9050CF0C7C0DF01AA0FBB1FA557BD4F96
:100E6000AD90BC90A114B10409F4B8C0D29430EF95
:100E7000D322C801875C9D4F7C01DC01AC58BF4F79
:100E8000DC92E558FD4FC080CC2021F093E09C150A
:100E900090F104C0D5016D917C9130C06C2D70E053
:100EA00080E090E00E94450F9B01AC0160E070E0A3
:100EB00080E291E40E946910F50120813181428134
:100EC00053810E94FC0F1B012C0120E030E0A9019E
:100ED0000E94F70F20E030E040E05FE387FD05C0AF
:100EE000C201B1010E942C0E04C0C201B1010E94D6
:100EF0002B0E0E940F0FF3E0FC15B0F0F701EC5839
:100F0000FF4F8D2D816080837F79D12C20E2C29E9E
:100F1000D02CCC2411246C297D2931966083319604
:100F200070830D5F1F4F5AC084E0C81211C0F701D3
:100F3000EC58FF4F8D2D846080833196D5018C91C4
:100F40008083319611968C9180833196108219C0DE
:100F5000B5E0CB1219C0F701EC58FF4F8D2D85601D
:100F60008083F5018281F701EB58FF4F8083D50123
:100F700011968C9111973196808331968C918F7157
:100F800080830C5F1F4F2AC0B9E0CB1227C0F70146
:100F9000EC58FF4F8D2D89608083F5018381F70127
:100FA000EB58FF4F8083D50112968C9112973196A2
:100FB000808311968C911197319680838C91F801E2
:100FC000EF54FD4F80838C91853421F08E3421F4D1
:100FD000108202C0B0E2B0830B5F1F4F6394E6E063
:100FE0006E1231CF86E0870D282F30E028153905A5
:100FF0001CF48093AC027BC01092AC0278C0E091EC
:101000009701F0E0EE0FFF1FE55CFD4F60817181FD
:101010007E01F1E1EF0EF11CC7010E94240EE09168
:101020009701F0E0EE0FFF1FE55AFD4F60817181DF
:101030008E010F5F1F4FC8010E94240E80919701FF
:101040008093B502F70101900020E9F73197EE197E
:10105000FF09EE0FEE0FEE0FD8010D900020E9F71B
:101060001197A01BB10BA370EA2BE093B602D70136
:101070002AE030E0F70101900020E9F73197AF0155
:101080004E195F09F901EC58FF4FBD016E197F0938
:101090006417750738F49D91E75CFD4F90832F5FCF
:1010A0003F4FE8CFE75CFD4FA801201B310BB90192
:1010B000640F751FD8010D900020E9F71197A01B50
:1010C000B10B7A01E01AF10AEA16FB0628F4DA01FC
:1010D0009D91AD019193EBCF8B018F5F90E060917B
:1010E000390270913A020E94F31180939701809126
:1010F000AF029EEF900F892B8093AF0222E0E0E0D9
:10110000822F90E0801791075CF4DC01A355BD4F5E
:101110008C91E827F0E0E55CFD4FE4912F5FF0CF84
:10112000D801A355BD4FEC930F5F1F4FC801875CDB
:101130009D4FFC01EC58FF4F2EEF2083109362036C
:1011400000936103D801A255BD4FE3E8F3E020E22C
:101150002E0F31913D932E13FCCFFC01EB56FF4F28
:101160008FEF80830E5D1F4F0093630381E0A09695
:101170000FB6F894DEBF0FBECDBFDF91CF911F91A8
:101180000F91FF90EF90DF90CF90BF90AF909F9026
:101190008F907F906F905F904F903F902F90089529
:1011A000009769F0FC0101900020E9F73197AF0149
:1011B000481B590BBC018CE991E00C94E80180E0DC
:1011C00090E008958F929F92AF92BF920F931F93DA
:1011D000CF93DF93CDB7DEB7A1970FB6F894DEBFFC
:1011E0000FBECDBF19A2423008F44AE08E010F5D58
:1011F0001F4F842E912CA12CB12CA50194010E948B
:101200000712E62FB901CA0101501109EA3014F49E
:10121000E05D01C0E95CD801EC93232B242B252B46
:1012200061F7C8010E94D008A1960FB6F894DEBFFE
:101230000FBECDBFDF91CF911F910F91BF90AF90A7
:101240009F908F9008950C94D0088F929F92AF92A8
:10125000BF92CF92DF92EF92FF92CF93DF936B0119
:101260007C019B01AC010E94B910882319F085E430
:1012700091E027C046015701E894B7F82FEF3FEF00
:101280004FE75FE7C501B4010E94B91081110DC09D
:101290002FEF3FEF4FE75FE7C501B4010E94980EC3
:1012A00018161CF489E491E00CC02FEF3FEF4FE7D4
:1012B0005FE4C701B6010E94F70F181674F48DE4BD
:1012C00091E0DF91CF91FF90EF90DF90CF90BF90B2
:1012D000AF909F908F900C94D0082FEF3FEF4FE787
:1012E0005FECC701B6010E94980E87FDE8CF20E0B1
:1012F00030E0A901C701B6010E94980E87FF09C01E
:101300008DE20E946C06EC01F7FAF094F7F8F09485
:1013100002C0C0E0D0E02AE037ED43EA5BE3C7015A
:10132000B6010E942C0E4B015C010E94160F6B014E
:101330007C010E94450F9B01AC01C501B4010E94D4
:101340002B0E4B015C014AE0C701B6010E94E20886
:10135000C80FD91F8EE20E946C06C80FD91F20E06B
:1013600030E040E251E4C501B4010E94FC0F4B01A2
:101370005C010E94160F6B01E12CF12C4AE0C701C1
:10138000B6010E94E208C80FD91FC701B6010E942A
:10139000450F9B01AC01C501B4010E942B0E20E05A
:1013A00030E040E251E40E94FC0F0E94160F80E002
:1013B00090E04AE00E94E2088C0F9D1FDF91CF91E0
:1013C000FF90EF90DF90CF90BF90AF909F908F9065
:1013D0000895CF92DF92EF92FF92CF93DF936C014B
:1013E000990FEE08FF08F7FE17C08DE20E946C0609
:1013F000EC0166277727CB016C197D098E099F09BF
:101400004AE00E94E2088C0F9D1FDF91CF91FF9070
:10141000EF90DF90CF9008954AE0C701B601DF91C9
:10142000CF91FF90EF90DF90CF900C94E2087894EA
:1014300084B5826084BD84B5816084BD85B58260D9
:1014400085BD85B5816085BD80916E00816080938A
:101450006E001092810080918100826080938100F3
:101460008091810081608093810080918000816003
:10147000809380008091B10084608093B10080915E
:10148000B00081608093B00080917A008460809386
:101490007A0080917A00826080937A0080917A004D
:1014A0008E7F80937A0080917A00806880937A00A2
:1014B0001092C100E091AC01F091AD0182E0808317
:1014C000E091A801F091A9011082E091AA01F091A8
:1014D000AB0187E680831092B401E091B001F091F6
:1014E000B10186E08083E091AE01F091AF0180818F
:1014F00080618083E091AE01F091AF0180818860CE
:101500008083E091AE01F091AF018081806880839B
:10151000E091AE01F091AF0180818F7D808361E029
:101520008DE00E947A0561E08DE00E944A0560E04E
:1015300086E00E947A0560E087E00E947A0560E01C
:1015400088E00E947A0560E089E00E947A0561E007
:1015500083E00E947A051092800310927F0310921C
:101560007E0310927D0310927C0310927B031092F5
:101570007A0310927903109278031092770388E02F
:1015800091E020E030E0FC01459155916591749126
:10159000443E55426105710509F034C04EE0429F5A
:1015A000C001439F900D1124FC01E45FFE4F259183
:1015B00034913093780320937703FC01E25FFE4F70
:1015C0002591349130937A0320937903FC01E05FF5
:1015D000FE4F2591349130937C0320937B03FC01D3
:1015E000EE5EFE4F2591349130937E0320937D0370
:1015F000FC01EC5EFE4F8591949190938003809363
:101600007F0307C02F5F3F4F0E962F30310509F043
:10161000BACF80917B0390917C03892B09F446C05B
:10162000909170039631E0F520916800983050F069
:1016300031E09E3008F430E081E001C0880F3A9537
:10164000EAF701C084E0822B80936800983038F07C
:101650009E3040F0963148F4ECE6F0E008C0EDE64C
:10166000F0E005C0EBE6F0E002C0E0E0F0E0408131
:10167000983030F481E001C0880F9A95EAF70EC0E7
:10168000292F30E09E3018F42850310902C02E5026
:10169000310981E001C0880F2A95EAF7842B808305
:1016A00080917D0390917E030E94E9030E94A5062C
:1016B00069EF71E08AE092E00E94770680EF91E0A6
:1016C00090933C0280933B028AED91E090935C0200
:1016D00080935B028091390290913A029C012F5FC6
:1016E0003F4FF901EE0FFF1FE55CFD4F47EE51E064
:1016F00051834083FC01EE0FFF1FE35AFD4F46EE7E
:1017000051E051834083FC01EE0FFF1FE357FD4F73
:1017100011821082F901E558FD4F10822E5F3F4F74
:10172000F901EE0FFF1FE75CFD4F4DED51E05183D6
:101730004083FC01EE0FFF1FE15AFD4F4CED51E0DD
:1017400051834083FC01EE0FFF1FE157FD4F1182D3
:101750001082FC01E358FD4F108230933A0220932F
:10176000390281E891E090938E0280938D0284E0AB
:1017700080937C022FE731E03093900220938F0218
:1017800080937D0281E00E94C2060E94C6040E94EE
:1017900048034B015C0184E1C82ED12CE12CF12CD3
:1017A0000E944803DC01CB0188199909AA09BB09E9
:1017B000883E9340A105B10558F021E0C21AD10836
:1017C000E108F10888EE880E83E0981EA11CB11C88
:1017D000C114D104E104F10419F78091970181113A
:1017E000D1CF60E08DE00E944A053324339486E037
:1017F0000E9408035C01909396018093950187E015
:101800000E9408038C01909394018093930188E0D7
:101810000E940803EC01909392018093910189E06A
:101820000E9408034C019093900180938F0184E003
:101830000E943103BC01990F880B990B0E94470F3E
:101840002B013C0160938B0170938C0180938D017F
:1018500090938E0185E00E943103BC01990F880BA3
:10186000990B0E94470F6B017C0160938701709375
:1018700088018093890190938A01AA94AB2819F476
:101880003092860102C0109286010130110519F4D0
:101890003092850102C010928501219719F430928F
:1018A000840102C0109284018A94892819F430922C
:1018B000830102C01092830180918601882329F060
:1018C00020E030E048EC52E40DC08091850188238F
:1018D00029F020E030E44CE156E404C020E030E0A0
:1018E0004AE754E4C301B2010E94FC0F20E030EC4F
:1018F0004FE754E40E949D0E0E94160F70938201E0
:101900006093810180918401882329F020E030E0F8
:1019100048EC52E40DC080918301882329F020E037
:1019200030E44CE156E404C020E030E04AE754E4FF
:10193000C701B6010E94FC0F20E030EC4FE754E4F1
:101940000E949D0E0E94160F7093800160937F018C
:1019500083E291E00E9423098091860190E00E9439
:10196000E90985E391E00E9423098091850190E0D7
:101970000E94E90985E391E00E9423098091840196
:1019800090E00E94E90985E391E00E94230980919B
:10199000830190E00E94E9098CE291E00E94230912
:1019A00060918B0170918C0180918D0190918E01DD
:1019B0000E94250985E391E00E9423096091870137
:1019C000709188018091890190918A010E94250976
:1019D00087E391E00E942309609181017091820167
:1019E00080E090E04AE00E94E20885E391E00E94F6
:1019F000230960917F017091800180E090E04AE0CE
:101A00000E94E20882E491E00E94D0080E946D03E7
:101A10000E94C6040E946D036B017C0160E083E0BC
:101A20000E947A0562E084E00E947A050E94A50681
:101A300084E693E00E949F0384E693E00E94AE0355
:101A4000892B61F40E946D03DC01CB018C199D0987
:101A5000AE09BF090697A105B10570F384E693E0CE
:101A60000E94AE03181619067CF484E693E00E94E7
:101A7000C50320910001309101012817390721F099
:101A8000909301018093000110927E0110927D01DC
:101A90006AE172E08BE292E00E94770680917B011E
:101AA00090917C01019690937C0180937B01059736
:101AB00044F081E00E94C20610927C0110927B01EA
:101AC00003C080E00E94C2060E946D0361E084E0D2
:101AD0000E947A050E94D5028ACE87E191E0909318
:101AE00065038093640320917003263140F528300C
:101AF00028F02E3030F0ECE6F0E005C0EDE6F0E046
:101B000002C0EBE6F0E03081283038F481E090E06C
:101B100001C0880F2A95EAF70FC0422F50E02E30FF
:101B200018F44850510902C04E50510981E090E02C
:101B300001C0880F4A95EAF7809583238083089532
:101B4000CF93DF93ECE9F1E01382128288EE93E009
:101B5000A0E0B0E084839583A683B78327E031E0DB
:101B60003183208325EC30E03587248724EC30E076
:101B70003787268720EC30E0318B208B21EC30E05A
:101B8000338B228B22EC30E0358B248B26EC30E03B
:101B9000378B268B118E128E138E148EC4E6D3E0F3
:101BA0001B821A828C839D83AE83BF8387E191E081
:101BB000998388831C8A1B8A1E8A1D8A188E1F8A15
:101BC0001A8E198E1C8E1B8EE1E8F3E080818E7FC9
:101BD000808361E084E00E947A0561E084E00E94F5
:101BE0004A05E7E6F3E0E491E88BE3E5F3E0E4910E
:101BF000F0E0EE0FFF1FE55CFC4F859194919A8B0E
:101C0000898B62E083E00E947A0583E08C87E6E6B8
:101C1000F3E0E491ED87E2E5F3E0E491F0E0EE0F2C
:101C2000FF1FEB5BFC4F859194919F878E871092ED
:101C3000AB0210923A021092390210926303109292
:101C4000AC02DF91CF910895FB01DC0105900D926C
:101C50000020E1F708955058BB27AA270E94430EA1
:101C60000C94BD0F0E94AF0F38F00E94B60F20F009
:101C700039F49F3F19F426F40C94AC0F0EF4E09560
:101C8000E7FB0C94A60FE92F0E94CE0F58F3BA176A
:101C9000620773078407950720F079F4A6F50C9482
:101CA000F00F0EF4E0950B2EBA2FA02D0B01B90109
:101CB00090010C01CA01A0011124FF27591B99F0C2
:101CC000593F50F4503E68F11A16F040A22F232FCE
:101CD000342F4427585FF3CF469537952795A7951E
:101CE000F0405395C9F77EF41F16BA0B620B730BC5
:101CF000840BBAF09150A1F0FF0FBB1F661F771F36
:101D0000881FC2F70EC0BA0F621F731F841F48F4EA
:101D1000879577956795B795F7959E3F08F0B0CF73
:101D20009395880F08F09927EE0F9795879508955A
:101D30000E94820F08F481E008950E94B10E0C9475
:101D4000BD0F0E94B60F58F00E94AF0F40F029F46B
:101D50005F3F29F00C94A60F51110C94F10F0C94D5
:101D6000AC0F0E94CE0F68F39923B1F3552391F382
:101D7000951B550BBB27AA2762177307840738F0FA
:101D80009F5F5F4F220F331F441FAA1FA9F335D057
:101D90000E2E3AF0E0E832D091505040E695001C0B
:101DA000CAF72BD0FE2F29D0660F771F881FBB1FC5
:101DB000261737074807AB07B0E809F0BB0B802DA3
:101DC000BF01FF2793585F4F3AF09E3F510578F0CF
:101DD0000C94A60F0C94F10F5F3FE4F3983ED4F3FC
:101DE000869577956795B795F7959F5FC9F7880FA3
:101DF000911D9695879597F90895E1E0660F771FF5
:101E0000881FBB1F621773078407BA0720F0621B85
:101E1000730B840BBA0BEE1F88F7E09508950E94B0
:101E2000160F6894B1110C94F10F08950E94D60F0B
:101E300088F09F5798F0B92F9927B751B0F0E1F08B
:101E4000660F771F881F991F1AF0BA95C9F714C03B
:101E5000B13091F00E94F00FB1E008950C94F00FB2
:101E6000672F782F8827B85F39F0B93FCCF3869574
:101E700077956795B395D9F73EF4909580957095D1
:101E800061957F4F8F4F9F4F0895E89409C097FB4E
:101E90003EF490958095709561957F4F8F4F9F4F41
:101EA0009923A9F0F92F96E9BB279395F695879585
:101EB00077956795B795F111F8CFFAF4BB0F11F448
:101EC00060FF1BC06F5F7F4F8F4F9F4F16C08823EF
:101ED00011F096E911C0772321F09EE8872F762F25
:101EE00005C0662371F096E8862F70E060E02AF066
:101EF0009A95660F771F881FDAF7880F9695879552
:101F000097F90895990F0008550FAA0BE0E8FEEF26
:101F100016161706E807F907C0F012161306E407AD
:101F2000F50798F0621B730B840B950B39F40A26A6
:101F300061F0232B242B252B21F408950A2609F484
:101F4000A140A6958FEF811D811D089597F99F6788
:101F500080E870E060E008959FEF80EC0895002431
:101F60000A941616170618060906089500240A94FE
:101F700012161306140605060895092E0394000C84
:101F800011F4882352F0BB0F40F4BF2B11F460FF13
:101F900004C06F5F7F4F8F4F9F4F089557FD90583C
:101FA000440F551F59F05F3F71F04795880F97FB1D
:101FB000991F61F09F3F79F08795089512161306D7
:101FC0001406551FF2CF4695F1DF08C01616170606
:101FD0001806991FF1CF869571056105089408953B
:101FE000E894BB2766277727CB0197F908950E94CD
:101FF000820F08F48FEF08950E940F100C94BD0F0C
:102000000E94AF0F38F00E94B60F20F0952311F018
:102010000C94A60F0C94AC0F11240C94F10F0E9499
:10202000CE0F70F3959FC1F3950F50E0551F629F3F
:10203000F001729FBB27F00DB11D639FAA27F00D21
:10204000B11DAA1F649F6627B00DA11D661F829F48
:102050002227B00DA11D621F739FB00DA11D621F2D
:10206000839FA00D611D221F749F3327A00D611D4A
:10207000231F849F600D211D822F762F6A2F11242C
:102080009F5750409AF0F1F088234AF0EE0FFF1F5F
:10209000BB1F661F771F881F91505040A9F79E3FB6
:1020A000510580F00C94A60F0C94F10F5F3FE4F300
:1020B000983ED4F3869577956795B795F795E7950C
:1020C0009F5FC1F7FE2B880F911D9695879597F915
:1020D0000895FA01EE0FFF1F309621053105A1F199
:1020E0006115710561F48038BFE39B0749F168947D
:1020F0009038810561F08038BFEF9B0741F099234C
:102100004AF5FF3FE1053105210519F1E8940894EE
:10211000E795D901AA2329F4AB2FBE2FF85FD0F39E
:1021200010C0FF5F70F4A695E0F7F73950F019F092
:10213000FF3A38F49F779F930DD00F9007FC90588B
:10214000089546F00C94AC0F60E070E080E89FE3E7
:1021500008954FE79F775F934F933F932F930E948C
:1021600069112F913F914F915F910E94FC0F0C9448
:10217000C6100E94820F880B990B089529F416F05F
:102180000C94A60F0C94F00F0C94AC0F0E94D60F79
:10219000A8F39638A0F707F80F92E8942BE33AEAF1
:1021A00048EB5FE70E9412100F920F920F924DB70B
:1021B0005EB70F920E94B111E8E6F0E00E94F810BD
:1021C0004F915F91EF91FF91E595EE1FFF1F49F051
:1021D000FE57E0684427EE0F441FFA95E1F741955A
:1021E000550B0E942B110F9007FE0C941F110895A0
:1021F000DF93CF931F930F93FF92EF92DF927B01B8
:102200008C01689406C0DA2EEF010E940F10FE01C7
:10221000E894A5912591359145915591A6F3EF014B
:102220000E94430EFE019701A801DA9469F7DF903E
:10223000EF90FF900F911F91CF91DF9108959B0137
:10224000AC0160E070E080E89FE30C949D0E0C947C
:10225000A60F0C94E5110E94D60FD8F39923C9F369
:10226000940F511DA3F39150504094F059F08823DE
:1022700032F0660F771F881F91505040C1F79E3F84
:1022800051052CF7880F911D9695879597F908951C
:102290005F3FACF0983E9CF0BB278695779567959D
:1022A000B79508F4B1609395C1F7BB0F58F711F4D7
:1022B00060FFE8CF6F5F7F4F8F4F9F4FE3CF0C944E
:1022C000F10F16F00C94E5110C94AC0F68940C947B
:1022D000A60F0E94D60FA8F39923C1F3AEF3DF93A4
:1022E000CF931F930F93FF92C92FDD2788232AF0E6
:1022F0002197660F771F881FDAF720E030E040E86B
:102300005FEB9FE3883920F0803E38F021968F778D
:102310000E942C0EE0E9F0E004C00E942C0EEDEBD0
:10232000F0E00E94F8108B01BE01EC01FB2E6F570C
:1023300071097595771F880B990B0E94470F28E14B
:1023400032E741E35FE30E940F10AF2D9801AE0129
:10235000FF900F911F91CF91DF910E94430E0C943B
:10236000BD0FFA01DC01AA0FBB1F9B01AC01BF57D7
:1023700028F4222733274427507820C0B75190F4FF
:10238000AB2F0024469537952795011CA395D2F3D2
:10239000002071F0220F331F441FB395DAF30ED0E3
:1023A0000C942B0E61307105A0E88A07B94630F411
:1023B0009B01AC016627772788279078309621F01B
:1023C000208331834283538308959F3F31F091509E
:1023D00020F4879577956795B795880F911D969509
:1023E000879597F9089597FB072E16F4009407D068
:1023F00077FD09D00E94291207FC05D03EF4909584
:1024000081959F4F0895709561957F4F0895A1E242
:102410001A2EAA1BBB1BFD010DC0AA1FBB1FEE1F5E
:10242000FF1FA217B307E407F50720F0A21BB30BA9
:10243000E40BF50B661F771F881F991F1A9469F725
:1024400060957095809590959B01AC01BD01CF0181
:102450000895AA1BBB1B51E107C0AA1FBB1FA617EB
:10246000B70710F0A61BB70B881F991F5A95A9F73D
:1024700080959095BC01CD010895EE0FFF1F05904A
:10248000F491E02D099481E090E0F8940C944812C6
:1024900011E0CDEBD1E004C0FE010E943D12219677
:0A24A000CE3BD107C9F7F894FFCF37
:1024AA00F00006000000006C02E801350213022762
:1024BA0002B302000000004704E801AE03C5038529
:1024CA00039F03496E707574733A200020506F742D
:1024DA0056616C733A20002053656E736F72733ABB
:1024EA0020000D0A006E616E00696E66006F7666E6
:0224FA000000E0
:00000001FF
